{
  "_format": "hh-sol-artifact-1",
  "contractName": "NinjaPunksNFT",
  "sourceName": "contracts/NinjaPunksNFT.sol",
  "abi": [
    {
      "inputs": [],
      "stateMutability": "payable",
      "type": "constructor"
    },
    {
      "anonymous": false,
      "inputs": [
        {
          "indexed": true,
          "internalType": "address",
          "name": "owner",
          "type": "address"
        },
        {
          "indexed": true,
          "internalType": "address",
          "name": "approved",
          "type": "address"
        },
        {
          "indexed": true,
          "internalType": "uint256",
          "name": "tokenId",
          "type": "uint256"
        }
      ],
      "name": "Approval",
      "type": "event"
    },
    {
      "anonymous": false,
      "inputs": [
        {
          "indexed": true,
          "internalType": "address",
          "name": "owner",
          "type": "address"
        },
        {
          "indexed": true,
          "internalType": "address",
          "name": "operator",
          "type": "address"
        },
        {
          "indexed": false,
          "internalType": "bool",
          "name": "approved",
          "type": "bool"
        }
      ],
      "name": "ApprovalForAll",
      "type": "event"
    },
    {
      "anonymous": false,
      "inputs": [
        {
          "indexed": true,
          "internalType": "address",
          "name": "previousOwner",
          "type": "address"
        },
        {
          "indexed": true,
          "internalType": "address",
          "name": "newOwner",
          "type": "address"
        }
      ],
      "name": "OwnershipTransferred",
      "type": "event"
    },
    {
      "anonymous": false,
      "inputs": [
        {
          "indexed": true,
          "internalType": "address",
          "name": "from",
          "type": "address"
        },
        {
          "indexed": true,
          "internalType": "address",
          "name": "to",
          "type": "address"
        },
        {
          "indexed": true,
          "internalType": "uint256",
          "name": "tokenId",
          "type": "uint256"
        }
      ],
      "name": "Transfer",
      "type": "event"
    },
    {
      "inputs": [
        {
          "internalType": "address",
          "name": "to",
          "type": "address"
        },
        {
          "internalType": "uint256",
          "name": "tokenId",
          "type": "uint256"
        }
      ],
      "name": "approve",
      "outputs": [],
      "stateMutability": "nonpayable",
      "type": "function"
    },
    {
      "inputs": [
        {
          "internalType": "address",
          "name": "owner",
          "type": "address"
        }
      ],
      "name": "balanceOf",
      "outputs": [
        {
          "internalType": "uint256",
          "name": "",
          "type": "uint256"
        }
      ],
      "stateMutability": "view",
      "type": "function"
    },
    {
      "inputs": [
        {
          "internalType": "uint256",
          "name": "tokenId",
          "type": "uint256"
        }
      ],
      "name": "getApproved",
      "outputs": [
        {
          "internalType": "address",
          "name": "",
          "type": "address"
        }
      ],
      "stateMutability": "view",
      "type": "function"
    },
    {
      "inputs": [
        {
          "internalType": "address",
          "name": "owner",
          "type": "address"
        },
        {
          "internalType": "address",
          "name": "operator",
          "type": "address"
        }
      ],
      "name": "isApprovedForAll",
      "outputs": [
        {
          "internalType": "bool",
          "name": "",
          "type": "bool"
        }
      ],
      "stateMutability": "view",
      "type": "function"
    },
    {
      "inputs": [],
      "name": "maxsupply",
      "outputs": [
        {
          "internalType": "uint256",
          "name": "",
          "type": "uint256"
        }
      ],
      "stateMutability": "view",
      "type": "function"
    },
    {
      "inputs": [
        {
          "internalType": "string",
          "name": "_tokenuri",
          "type": "string"
        }
      ],
      "name": "mint",
      "outputs": [
        {
          "internalType": "bool",
          "name": "",
          "type": "bool"
        }
      ],
      "stateMutability": "payable",
      "type": "function"
    },
    {
      "inputs": [],
      "name": "mintprice",
      "outputs": [
        {
          "internalType": "uint256",
          "name": "",
          "type": "uint256"
        }
      ],
      "stateMutability": "view",
      "type": "function"
    },
    {
      "inputs": [],
      "name": "name",
      "outputs": [
        {
          "internalType": "string",
          "name": "",
          "type": "string"
        }
      ],
      "stateMutability": "view",
      "type": "function"
    },
    {
      "inputs": [
        {
          "internalType": "uint256",
          "name": "",
          "type": "uint256"
        }
      ],
      "name": "nftAttributes",
      "outputs": [
        {
          "internalType": "string",
          "name": "",
          "type": "string"
        }
      ],
      "stateMutability": "view",
      "type": "function"
    },
    {
      "inputs": [],
      "name": "owner",
      "outputs": [
        {
          "internalType": "address",
          "name": "",
          "type": "address"
        }
      ],
      "stateMutability": "view",
      "type": "function"
    },
    {
      "inputs": [
        {
          "internalType": "uint256",
          "name": "tokenId",
          "type": "uint256"
        }
      ],
      "name": "ownerOf",
      "outputs": [
        {
          "internalType": "address",
          "name": "",
          "type": "address"
        }
      ],
      "stateMutability": "view",
      "type": "function"
    },
    {
      "inputs": [],
      "name": "renounceOwnership",
      "outputs": [],
      "stateMutability": "nonpayable",
      "type": "function"
    },
    {
      "inputs": [
        {
          "internalType": "address",
          "name": "from",
          "type": "address"
        },
        {
          "internalType": "address",
          "name": "to",
          "type": "address"
        },
        {
          "internalType": "uint256",
          "name": "tokenId",
          "type": "uint256"
        }
      ],
      "name": "safeTransferFrom",
      "outputs": [],
      "stateMutability": "nonpayable",
      "type": "function"
    },
    {
      "inputs": [
        {
          "internalType": "address",
          "name": "from",
          "type": "address"
        },
        {
          "internalType": "address",
          "name": "to",
          "type": "address"
        },
        {
          "internalType": "uint256",
          "name": "tokenId",
          "type": "uint256"
        },
        {
          "internalType": "bytes",
          "name": "data",
          "type": "bytes"
        }
      ],
      "name": "safeTransferFrom",
      "outputs": [],
      "stateMutability": "nonpayable",
      "type": "function"
    },
    {
      "inputs": [
        {
          "internalType": "address",
          "name": "operator",
          "type": "address"
        },
        {
          "internalType": "bool",
          "name": "approved",
          "type": "bool"
        }
      ],
      "name": "setApprovalForAll",
      "outputs": [],
      "stateMutability": "nonpayable",
      "type": "function"
    },
    {
      "inputs": [
        {
          "internalType": "string",
          "name": "_tokenuri",
          "type": "string"
        }
      ],
      "name": "settokenuri",
      "outputs": [],
      "stateMutability": "nonpayable",
      "type": "function"
    },
    {
      "inputs": [
        {
          "internalType": "bytes4",
          "name": "interfaceId",
          "type": "bytes4"
        }
      ],
      "name": "supportsInterface",
      "outputs": [
        {
          "internalType": "bool",
          "name": "",
          "type": "bool"
        }
      ],
      "stateMutability": "view",
      "type": "function"
    },
    {
      "inputs": [],
      "name": "symbol",
      "outputs": [
        {
          "internalType": "string",
          "name": "",
          "type": "string"
        }
      ],
      "stateMutability": "view",
      "type": "function"
    },
    {
      "inputs": [
        {
          "internalType": "uint256",
          "name": "_tokenId",
          "type": "uint256"
        }
      ],
      "name": "tokenURI",
      "outputs": [
        {
          "internalType": "string",
          "name": "",
          "type": "string"
        }
      ],
      "stateMutability": "view",
      "type": "function"
    },
    {
      "inputs": [],
      "name": "totalsupply",
      "outputs": [
        {
          "internalType": "uint256",
          "name": "",
          "type": "uint256"
        }
      ],
      "stateMutability": "view",
      "type": "function"
    },
    {
      "inputs": [
        {
          "internalType": "address",
          "name": "from",
          "type": "address"
        },
        {
          "internalType": "address",
          "name": "to",
          "type": "address"
        },
        {
          "internalType": "uint256",
          "name": "tokenId",
          "type": "uint256"
        }
      ],
      "name": "transferFrom",
      "outputs": [],
      "stateMutability": "nonpayable",
      "type": "function"
    },
    {
      "inputs": [
        {
          "internalType": "address",
          "name": "newOwner",
          "type": "address"
        }
      ],
      "name": "transferOwnership",
      "outputs": [],
      "stateMutability": "nonpayable",
      "type": "function"
    },
    {
      "inputs": [],
      "name": "withdraw",
      "outputs": [],
      "stateMutability": "payable",
      "type": "function"
    },
    {
      "inputs": [],
      "name": "withdrawaddress",
      "outputs": [
        {
          "internalType": "address payable",
          "name": "",
          "type": "address"
        }
      ],
      "stateMutability": "view",
      "type": "function"
    }
  ],
  "bytecode": "0x60806040526040518060400160405280600981526020017f4e696e6a6150756e6b00000000000000000000000000000000000000000000008152506040518060400160405280600381526020017f4e4a500000000000000000000000000000000000000000000000000000000000815250816000908162000081919062000463565b50806001908162000093919062000463565b505050620000b6620000aa6200011b60201b60201c565b6200012360201b60201c565b66470de4df8200006007819055506000600881905550606460098190555033600b60006101000a81548173ffffffffffffffffffffffffffffffffffffffff021916908373ffffffffffffffffffffffffffffffffffffffff1602179055506200054a565b600033905090565b6000600660009054906101000a900473ffffffffffffffffffffffffffffffffffffffff16905081600660006101000a81548173ffffffffffffffffffffffffffffffffffffffff021916908373ffffffffffffffffffffffffffffffffffffffff1602179055508173ffffffffffffffffffffffffffffffffffffffff168173ffffffffffffffffffffffffffffffffffffffff167f8be0079c531659141344cd1fd0a4f28419497f9722a3daafe3b4186f6b6457e060405160405180910390a35050565b600081519050919050565b7f4e487b7100000000000000000000000000000000000000000000000000000000600052604160045260246000fd5b7f4e487b7100000000000000000000000000000000000000000000000000000000600052602260045260246000fd5b600060028204905060018216806200026b57607f821691505b60208210810362000281576200028062000223565b5b50919050565b60008190508160005260206000209050919050565b60006020601f8301049050919050565b600082821b905092915050565b600060088302620002eb7fffffffffffffffffffffffffffffffffffffffffffffffffffffffffffffffff82620002ac565b620002f78683620002ac565b95508019841693508086168417925050509392505050565b6000819050919050565b6000819050919050565b6000620003446200033e62000338846200030f565b62000319565b6200030f565b9050919050565b6000819050919050565b620003608362000323565b620003786200036f826200034b565b848454620002b9565b825550505050565b600090565b6200038f62000380565b6200039c81848462000355565b505050565b5b81811015620003c457620003b860008262000385565b600181019050620003a2565b5050565b601f8211156200041357620003dd8162000287565b620003e8846200029c565b81016020851015620003f8578190505b6200041062000407856200029c565b830182620003a1565b50505b505050565b600082821c905092915050565b6000620004386000198460080262000418565b1980831691505092915050565b600062000453838362000425565b9150826002028217905092915050565b6200046e82620001e9565b67ffffffffffffffff8111156200048a5762000489620001f4565b5b62000496825462000252565b620004a3828285620003c8565b600060209050601f831160018114620004db5760008415620004c6578287015190505b620004d2858262000445565b86555062000542565b601f198416620004eb8662000287565b60005b828110156200051557848901518255600182019150602085019450602081019050620004ee565b8683101562000535578489015162000531601f89168262000425565b8355505b6001600288020188555050505b505050505050565b6131f1806200055a6000396000f3fe60806040526004361061014b5760003560e01c806388eab676116100b6578063c87b56dd1161006f578063c87b56dd1461045d578063ce6c48161461049a578063d4b5d603146104c5578063d85d3d2714610502578063e985e9c514610532578063f2fde38b1461056f5761014b565b806388eab676146103615780638da5cb5b1461038c57806395d89b41146103b7578063a1cb7d3a146103e2578063a22cb4651461040b578063b88d4fde146104345761014b565b806342842e0e1161010857806342842e0e146102515780634b6406d11461027a5780636352211e146102a557806370a08231146102e2578063715018a61461031f57806372dd529b146103365761014b565b806301ffc9a71461015057806306fdde031461018d578063081812fc146101b8578063095ea7b3146101f557806323b872dd1461021e5780633ccfd60b14610247575b600080fd5b34801561015c57600080fd5b5061017760048036038101906101729190611e71565b610598565b6040516101849190611eb9565b60405180910390f35b34801561019957600080fd5b506101a261067a565b6040516101af9190611f64565b60405180910390f35b3480156101c457600080fd5b506101df60048036038101906101da9190611fbc565b61070c565b6040516101ec919061202a565b60405180910390f35b34801561020157600080fd5b5061021c60048036038101906102179190612071565b610752565b005b34801561022a57600080fd5b50610245600480360381019061024091906120b1565b610869565b005b61024f6108c9565b005b34801561025d57600080fd5b50610278600480360381019061027391906120b1565b6109a8565b005b34801561028657600080fd5b5061028f6109c8565b60405161029c9190612113565b60405180910390f35b3480156102b157600080fd5b506102cc60048036038101906102c79190611fbc565b6109ce565b6040516102d9919061202a565b60405180910390f35b3480156102ee57600080fd5b506103096004803603810190610304919061212e565b610a54565b6040516103169190612113565b60405180910390f35b34801561032b57600080fd5b50610334610b0b565b005b34801561034257600080fd5b5061034b610b1f565b6040516103589190612113565b60405180910390f35b34801561036d57600080fd5b50610376610b25565b6040516103839190612113565b60405180910390f35b34801561039857600080fd5b506103a1610b2b565b6040516103ae919061202a565b60405180910390f35b3480156103c357600080fd5b506103cc610b55565b6040516103d99190611f64565b60405180910390f35b3480156103ee57600080fd5b5061040960048036038101906104049190612290565b610be7565b005b34801561041757600080fd5b50610432600480360381019061042d9190612305565b610bfa565b005b34801561044057600080fd5b5061045b600480360381019061045691906123e6565b610c10565b005b34801561046957600080fd5b50610484600480360381019061047f9190611fbc565b610c72565b6040516104919190611f64565b60405180910390f35b3480156104a657600080fd5b506104af610d2f565b6040516104bc919061248a565b60405180910390f35b3480156104d157600080fd5b506104ec60048036038101906104e79190611fbc565b610d55565b6040516104f99190611f64565b60405180910390f35b61051c60048036038101906105179190612290565b610df5565b6040516105299190611eb9565b60405180910390f35b34801561053e57600080fd5b50610559600480360381019061055491906124a5565b610ef4565b6040516105669190611eb9565b60405180910390f35b34801561057b57600080fd5b506105966004803603810190610591919061212e565b610f88565b005b60007f80ac58cd000000000000000000000000000000000000000000000000000000007bffffffffffffffffffffffffffffffffffffffffffffffffffffffff1916827bffffffffffffffffffffffffffffffffffffffffffffffffffffffff1916148061066357507f5b5e139f000000000000000000000000000000000000000000000000000000007bffffffffffffffffffffffffffffffffffffffffffffffffffffffff1916827bffffffffffffffffffffffffffffffffffffffffffffffffffffffff1916145b8061067357506106728261100b565b5b9050919050565b60606000805461068990612514565b80601f01602080910402602001604051908101604052809291908181526020018280546106b590612514565b80156107025780601f106106d757610100808354040283529160200191610702565b820191906000526020600020905b8154815290600101906020018083116106e557829003601f168201915b5050505050905090565b600061071782611075565b6004600083815260200190815260200160002060009054906101000a900473ffffffffffffffffffffffffffffffffffffffff169050919050565b600061075d826109ce565b90508073ffffffffffffffffffffffffffffffffffffffff168373ffffffffffffffffffffffffffffffffffffffff16036107cd576040517f08c379a00000000000000000000000000000000000000000000000000000000081526004016107c4906125b7565b60405180910390fd5b8073ffffffffffffffffffffffffffffffffffffffff166107ec6110c0565b73ffffffffffffffffffffffffffffffffffffffff16148061081b575061081a816108156110c0565b610ef4565b5b61085a576040517f08c379a000000000000000000000000000000000000000000000000000000000815260040161085190612649565b60405180910390fd5b61086483836110c8565b505050565b61087a6108746110c0565b82611181565b6108b9576040517f08c379a00000000000000000000000000000000000000000000000000000000081526004016108b0906126db565b60405180910390fd5b6108c4838383611216565b505050565b6108d161150f565b60004790506000600b60009054906101000a900473ffffffffffffffffffffffffffffffffffffffff1673ffffffffffffffffffffffffffffffffffffffff168260405161091e9061272c565b60006040518083038185875af1925050503d806000811461095b576040519150601f19603f3d011682016040523d82523d6000602084013e610960565b606091505b50509050806109a4576040517f08c379a000000000000000000000000000000000000000000000000000000000815260040161099b9061278d565b60405180910390fd5b5050565b6109c383838360405180602001604052806000815250610c10565b505050565b60095481565b6000806109da8361158d565b9050600073ffffffffffffffffffffffffffffffffffffffff168173ffffffffffffffffffffffffffffffffffffffff1603610a4b576040517f08c379a0000000000000000000000000000000000000000000000000000000008152600401610a42906127f9565b60405180910390fd5b80915050919050565b60008073ffffffffffffffffffffffffffffffffffffffff168273ffffffffffffffffffffffffffffffffffffffff1603610ac4576040517f08c379a0000000000000000000000000000000000000000000000000000000008152600401610abb9061288b565b60405180910390fd5b600360008373ffffffffffffffffffffffffffffffffffffffff1673ffffffffffffffffffffffffffffffffffffffff168152602001908152602001600020549050919050565b610b1361150f565b610b1d60006115ca565b565b60085481565b60075481565b6000600660009054906101000a900473ffffffffffffffffffffffffffffffffffffffff16905090565b606060018054610b6490612514565b80601f0160208091040260200160405190810160405280929190818152602001828054610b9090612514565b8015610bdd5780601f10610bb257610100808354040283529160200191610bdd565b820191906000526020600020905b815481529060010190602001808311610bc057829003601f168201915b5050505050905090565b80600a9081610bf69190612a57565b5050565b610c0c610c056110c0565b8383611690565b5050565b610c21610c1b6110c0565b83611181565b610c60576040517f08c379a0000000000000000000000000000000000000000000000000000000008152600401610c57906126db565b60405180910390fd5b610c6c848484846117fc565b50505050565b6060610c7d82611858565b610c8657600080fd5b6000600c60008481526020019081526020016000208054610ca690612514565b80601f0160208091040260200160405190810160405280929190818152602001828054610cd290612514565b8015610d1f5780601f10610cf457610100808354040283529160200191610d1f565b820191906000526020600020905b815481529060010190602001808311610d0257829003601f168201915b5050505050905080915050919050565b600b60009054906101000a900473ffffffffffffffffffffffffffffffffffffffff1681565b600c6020528060005260406000206000915090508054610d7490612514565b80601f0160208091040260200160405190810160405280929190818152602001828054610da090612514565b8015610ded5780601f10610dc257610100808354040283529160200191610ded565b820191906000526020600020905b815481529060010190602001808311610dd057829003601f168201915b505050505081565b60006007543414610e3b576040517f08c379a0000000000000000000000000000000000000000000000000000000008152600401610e3290612b75565b60405180910390fd5b60095460085410610e81576040517f08c379a0000000000000000000000000000000000000000000000000000000008152600401610e7890612be1565b60405180910390fd5b60006001600854610e929190612c30565b905060086000815480929190610ea790612c64565b919050555082600c60008381526020019081526020016000209081610ecc9190612a57565b50610ed73382611899565b610ee083610be7565b610ee981610c72565b506001915050919050565b6000600560008473ffffffffffffffffffffffffffffffffffffffff1673ffffffffffffffffffffffffffffffffffffffff16815260200190815260200160002060008373ffffffffffffffffffffffffffffffffffffffff1673ffffffffffffffffffffffffffffffffffffffff16815260200190815260200160002060009054906101000a900460ff16905092915050565b610f9061150f565b600073ffffffffffffffffffffffffffffffffffffffff168173ffffffffffffffffffffffffffffffffffffffff1603610fff576040517f08c379a0000000000000000000000000000000000000000000000000000000008152600401610ff690612d1e565b60405180910390fd5b611008816115ca565b50565b60007f01ffc9a7000000000000000000000000000000000000000000000000000000007bffffffffffffffffffffffffffffffffffffffffffffffffffffffff1916827bffffffffffffffffffffffffffffffffffffffffffffffffffffffff1916149050919050565b61107e81611858565b6110bd576040517f08c379a00000000000000000000000000000000000000000000000000000000081526004016110b4906127f9565b60405180910390fd5b50565b600033905090565b816004600083815260200190815260200160002060006101000a81548173ffffffffffffffffffffffffffffffffffffffff021916908373ffffffffffffffffffffffffffffffffffffffff160217905550808273ffffffffffffffffffffffffffffffffffffffff1661113b836109ce565b73ffffffffffffffffffffffffffffffffffffffff167f8c5be1e5ebec7d5bd14f71427d1e84f3dd0314c0f7b2291e5b200ac8c7c3b92560405160405180910390a45050565b60008061118d836109ce565b90508073ffffffffffffffffffffffffffffffffffffffff168473ffffffffffffffffffffffffffffffffffffffff1614806111cf57506111ce8185610ef4565b5b8061120d57508373ffffffffffffffffffffffffffffffffffffffff166111f58461070c565b73ffffffffffffffffffffffffffffffffffffffff16145b91505092915050565b8273ffffffffffffffffffffffffffffffffffffffff16611236826109ce565b73ffffffffffffffffffffffffffffffffffffffff161461128c576040517f08c379a000000000000000000000000000000000000000000000000000000000815260040161128390612db0565b60405180910390fd5b600073ffffffffffffffffffffffffffffffffffffffff168273ffffffffffffffffffffffffffffffffffffffff16036112fb576040517f08c379a00000000000000000000000000000000000000000000000000000000081526004016112f290612e42565b60405180910390fd5b61130883838360016118b7565b8273ffffffffffffffffffffffffffffffffffffffff16611328826109ce565b73ffffffffffffffffffffffffffffffffffffffff161461137e576040517f08c379a000000000000000000000000000000000000000000000000000000000815260040161137590612db0565b60405180910390fd5b6004600082815260200190815260200160002060006101000a81549073ffffffffffffffffffffffffffffffffffffffff02191690556001600360008573ffffffffffffffffffffffffffffffffffffffff1673ffffffffffffffffffffffffffffffffffffffff168152602001908152602001600020600082825403925050819055506001600360008473ffffffffffffffffffffffffffffffffffffffff1673ffffffffffffffffffffffffffffffffffffffff16815260200190815260200160002060008282540192505081905550816002600083815260200190815260200160002060006101000a81548173ffffffffffffffffffffffffffffffffffffffff021916908373ffffffffffffffffffffffffffffffffffffffff160217905550808273ffffffffffffffffffffffffffffffffffffffff168473ffffffffffffffffffffffffffffffffffffffff167fddf252ad1be2c89b69c2b068fc378daa952ba7f163c4a11628f55a4df523b3ef60405160405180910390a461150a83838360016119dd565b505050565b6115176110c0565b73ffffffffffffffffffffffffffffffffffffffff16611535610b2b565b73ffffffffffffffffffffffffffffffffffffffff161461158b576040517f08c379a000000000000000000000000000000000000000000000000000000000815260040161158290612eae565b60405180910390fd5b565b60006002600083815260200190815260200160002060009054906101000a900473ffffffffffffffffffffffffffffffffffffffff169050919050565b6000600660009054906101000a900473ffffffffffffffffffffffffffffffffffffffff16905081600660006101000a81548173ffffffffffffffffffffffffffffffffffffffff021916908373ffffffffffffffffffffffffffffffffffffffff1602179055508173ffffffffffffffffffffffffffffffffffffffff168173ffffffffffffffffffffffffffffffffffffffff167f8be0079c531659141344cd1fd0a4f28419497f9722a3daafe3b4186f6b6457e060405160405180910390a35050565b8173ffffffffffffffffffffffffffffffffffffffff168373ffffffffffffffffffffffffffffffffffffffff16036116fe576040517f08c379a00000000000000000000000000000000000000000000000000000000081526004016116f590612f1a565b60405180910390fd5b80600560008573ffffffffffffffffffffffffffffffffffffffff1673ffffffffffffffffffffffffffffffffffffffff16815260200190815260200160002060008473ffffffffffffffffffffffffffffffffffffffff1673ffffffffffffffffffffffffffffffffffffffff16815260200190815260200160002060006101000a81548160ff0219169083151502179055508173ffffffffffffffffffffffffffffffffffffffff168373ffffffffffffffffffffffffffffffffffffffff167f17307eab39ab6107e8899845ad3d59bd9653f200f220920489ca2b5937696c31836040516117ef9190611eb9565b60405180910390a3505050565b611807848484611216565b611813848484846119e3565b611852576040517f08c379a000000000000000000000000000000000000000000000000000000000815260040161184990612fac565b60405180910390fd5b50505050565b60008073ffffffffffffffffffffffffffffffffffffffff1661187a8361158d565b73ffffffffffffffffffffffffffffffffffffffff1614159050919050565b6118b3828260405180602001604052806000815250611b6a565b5050565b60018111156119d757600073ffffffffffffffffffffffffffffffffffffffff168473ffffffffffffffffffffffffffffffffffffffff161461194b5780600360008673ffffffffffffffffffffffffffffffffffffffff1673ffffffffffffffffffffffffffffffffffffffff16815260200190815260200160002060008282546119439190612fcc565b925050819055505b600073ffffffffffffffffffffffffffffffffffffffff168373ffffffffffffffffffffffffffffffffffffffff16146119d65780600360008573ffffffffffffffffffffffffffffffffffffffff1673ffffffffffffffffffffffffffffffffffffffff16815260200190815260200160002060008282546119ce9190612c30565b925050819055505b5b50505050565b50505050565b6000611a048473ffffffffffffffffffffffffffffffffffffffff16611bc5565b15611b5d578373ffffffffffffffffffffffffffffffffffffffff1663150b7a02611a2d6110c0565b8786866040518563ffffffff1660e01b8152600401611a4f9493929190613055565b6020604051808303816000875af1925050508015611a8b57506040513d601f19601f82011682018060405250810190611a8891906130b6565b60015b611b0d573d8060008114611abb576040519150601f19603f3d011682016040523d82523d6000602084013e611ac0565b606091505b506000815103611b05576040517f08c379a0000000000000000000000000000000000000000000000000000000008152600401611afc90612fac565b60405180910390fd5b805181602001fd5b63150b7a0260e01b7bffffffffffffffffffffffffffffffffffffffffffffffffffffffff1916817bffffffffffffffffffffffffffffffffffffffffffffffffffffffff191614915050611b62565b600190505b949350505050565b611b748383611be8565b611b8160008484846119e3565b611bc0576040517f08c379a0000000000000000000000000000000000000000000000000000000008152600401611bb790612fac565b60405180910390fd5b505050565b6000808273ffffffffffffffffffffffffffffffffffffffff163b119050919050565b600073ffffffffffffffffffffffffffffffffffffffff168273ffffffffffffffffffffffffffffffffffffffff1603611c57576040517f08c379a0000000000000000000000000000000000000000000000000000000008152600401611c4e9061312f565b60405180910390fd5b611c6081611858565b15611ca0576040517f08c379a0000000000000000000000000000000000000000000000000000000008152600401611c979061319b565b60405180910390fd5b611cae6000838360016118b7565b611cb781611858565b15611cf7576040517f08c379a0000000000000000000000000000000000000000000000000000000008152600401611cee9061319b565b60405180910390fd5b6001600360008473ffffffffffffffffffffffffffffffffffffffff1673ffffffffffffffffffffffffffffffffffffffff16815260200190815260200160002060008282540192505081905550816002600083815260200190815260200160002060006101000a81548173ffffffffffffffffffffffffffffffffffffffff021916908373ffffffffffffffffffffffffffffffffffffffff160217905550808273ffffffffffffffffffffffffffffffffffffffff16600073ffffffffffffffffffffffffffffffffffffffff167fddf252ad1be2c89b69c2b068fc378daa952ba7f163c4a11628f55a4df523b3ef60405160405180910390a4611e016000838360016119dd565b5050565b6000604051905090565b600080fd5b600080fd5b60007fffffffff0000000000000000000000000000000000000000000000000000000082169050919050565b611e4e81611e19565b8114611e5957600080fd5b50565b600081359050611e6b81611e45565b92915050565b600060208284031215611e8757611e86611e0f565b5b6000611e9584828501611e5c565b91505092915050565b60008115159050919050565b611eb381611e9e565b82525050565b6000602082019050611ece6000830184611eaa565b92915050565b600081519050919050565b600082825260208201905092915050565b60005b83811015611f0e578082015181840152602081019050611ef3565b60008484015250505050565b6000601f19601f8301169050919050565b6000611f3682611ed4565b611f408185611edf565b9350611f50818560208601611ef0565b611f5981611f1a565b840191505092915050565b60006020820190508181036000830152611f7e8184611f2b565b905092915050565b6000819050919050565b611f9981611f86565b8114611fa457600080fd5b50565b600081359050611fb681611f90565b92915050565b600060208284031215611fd257611fd1611e0f565b5b6000611fe084828501611fa7565b91505092915050565b600073ffffffffffffffffffffffffffffffffffffffff82169050919050565b600061201482611fe9565b9050919050565b61202481612009565b82525050565b600060208201905061203f600083018461201b565b92915050565b61204e81612009565b811461205957600080fd5b50565b60008135905061206b81612045565b92915050565b6000806040838503121561208857612087611e0f565b5b60006120968582860161205c565b92505060206120a785828601611fa7565b9150509250929050565b6000806000606084860312156120ca576120c9611e0f565b5b60006120d88682870161205c565b93505060206120e98682870161205c565b92505060406120fa86828701611fa7565b9150509250925092565b61210d81611f86565b82525050565b60006020820190506121286000830184612104565b92915050565b60006020828403121561214457612143611e0f565b5b60006121528482850161205c565b91505092915050565b600080fd5b600080fd5b7f4e487b7100000000000000000000000000000000000000000000000000000000600052604160045260246000fd5b61219d82611f1a565b810181811067ffffffffffffffff821117156121bc576121bb612165565b5b80604052505050565b60006121cf611e05565b90506121db8282612194565b919050565b600067ffffffffffffffff8211156121fb576121fa612165565b5b61220482611f1a565b9050602081019050919050565b82818337600083830152505050565b600061223361222e846121e0565b6121c5565b90508281526020810184848401111561224f5761224e612160565b5b61225a848285612211565b509392505050565b600082601f8301126122775761227661215b565b5b8135612287848260208601612220565b91505092915050565b6000602082840312156122a6576122a5611e0f565b5b600082013567ffffffffffffffff8111156122c4576122c3611e14565b5b6122d084828501612262565b91505092915050565b6122e281611e9e565b81146122ed57600080fd5b50565b6000813590506122ff816122d9565b92915050565b6000806040838503121561231c5761231b611e0f565b5b600061232a8582860161205c565b925050602061233b858286016122f0565b9150509250929050565b600067ffffffffffffffff8211156123605761235f612165565b5b61236982611f1a565b9050602081019050919050565b600061238961238484612345565b6121c5565b9050828152602081018484840111156123a5576123a4612160565b5b6123b0848285612211565b509392505050565b600082601f8301126123cd576123cc61215b565b5b81356123dd848260208601612376565b91505092915050565b60008060008060808587031215612400576123ff611e0f565b5b600061240e8782880161205c565b945050602061241f8782880161205c565b935050604061243087828801611fa7565b925050606085013567ffffffffffffffff81111561245157612450611e14565b5b61245d878288016123b8565b91505092959194509250565b600061247482611fe9565b9050919050565b61248481612469565b82525050565b600060208201905061249f600083018461247b565b92915050565b600080604083850312156124bc576124bb611e0f565b5b60006124ca8582860161205c565b92505060206124db8582860161205c565b9150509250929050565b7f4e487b7100000000000000000000000000000000000000000000000000000000600052602260045260246000fd5b6000600282049050600182168061252c57607f821691505b60208210810361253f5761253e6124e5565b5b50919050565b7f4552433732313a20617070726f76616c20746f2063757272656e74206f776e6560008201527f7200000000000000000000000000000000000000000000000000000000000000602082015250565b60006125a1602183611edf565b91506125ac82612545565b604082019050919050565b600060208201905081810360008301526125d081612594565b9050919050565b7f4552433732313a20617070726f76652063616c6c6572206973206e6f7420746f60008201527f6b656e206f776e6572206f7220617070726f76656420666f7220616c6c000000602082015250565b6000612633603d83611edf565b915061263e826125d7565b604082019050919050565b6000602082019050818103600083015261266281612626565b9050919050565b7f4552433732313a2063616c6c6572206973206e6f7420746f6b656e206f776e6560008201527f72206f7220617070726f76656400000000000000000000000000000000000000602082015250565b60006126c5602d83611edf565b91506126d082612669565b604082019050919050565b600060208201905081810360008301526126f4816126b8565b9050919050565b600081905092915050565b50565b60006127166000836126fb565b915061272182612706565b600082019050919050565b600061273782612709565b9150819050919050565b7f7769746864726177206661696c65640000000000000000000000000000000000600082015250565b6000612777600f83611edf565b915061278282612741565b602082019050919050565b600060208201905081810360008301526127a68161276a565b9050919050565b7f4552433732313a20696e76616c696420746f6b656e2049440000000000000000600082015250565b60006127e3601883611edf565b91506127ee826127ad565b602082019050919050565b60006020820190508181036000830152612812816127d6565b9050919050565b7f4552433732313a2061646472657373207a65726f206973206e6f74206120766160008201527f6c6964206f776e65720000000000000000000000000000000000000000000000602082015250565b6000612875602983611edf565b915061288082612819565b604082019050919050565b600060208201905081810360008301526128a481612868565b9050919050565b60008190508160005260206000209050919050565b60006020601f8301049050919050565b600082821b905092915050565b60006008830261290d7fffffffffffffffffffffffffffffffffffffffffffffffffffffffffffffffff826128d0565b61291786836128d0565b95508019841693508086168417925050509392505050565b6000819050919050565b600061295461294f61294a84611f86565b61292f565b611f86565b9050919050565b6000819050919050565b61296e83612939565b61298261297a8261295b565b8484546128dd565b825550505050565b600090565b61299761298a565b6129a2818484612965565b505050565b5b818110156129c6576129bb60008261298f565b6001810190506129a8565b5050565b601f821115612a0b576129dc816128ab565b6129e5846128c0565b810160208510156129f4578190505b612a08612a00856128c0565b8301826129a7565b50505b505050565b600082821c905092915050565b6000612a2e60001984600802612a10565b1980831691505092915050565b6000612a478383612a1d565b9150826002028217905092915050565b612a6082611ed4565b67ffffffffffffffff811115612a7957612a78612165565b5b612a838254612514565b612a8e8282856129ca565b600060209050601f831160018114612ac15760008415612aaf578287015190505b612ab98582612a3b565b865550612b21565b601f198416612acf866128ab565b60005b82811015612af757848901518255600182019150602085019450602081019050612ad2565b86831015612b145784890151612b10601f891682612a1d565b8355505b6001600288020188555050505b505050505050565b7f4e6f7420656e6f75676820657468657200000000000000000000000000000000600082015250565b6000612b5f601083611edf565b9150612b6a82612b29565b602082019050919050565b60006020820190508181036000830152612b8e81612b52565b9050919050565b7f4d617820737570706c7920726561636865640000000000000000000000000000600082015250565b6000612bcb601283611edf565b9150612bd682612b95565b602082019050919050565b60006020820190508181036000830152612bfa81612bbe565b9050919050565b7f4e487b7100000000000000000000000000000000000000000000000000000000600052601160045260246000fd5b6000612c3b82611f86565b9150612c4683611f86565b9250828201905080821115612c5e57612c5d612c01565b5b92915050565b6000612c6f82611f86565b91507fffffffffffffffffffffffffffffffffffffffffffffffffffffffffffffffff8203612ca157612ca0612c01565b5b600182019050919050565b7f4f776e61626c653a206e6577206f776e657220697320746865207a65726f206160008201527f6464726573730000000000000000000000000000000000000000000000000000602082015250565b6000612d08602683611edf565b9150612d1382612cac565b604082019050919050565b60006020820190508181036000830152612d3781612cfb565b9050919050565b7f4552433732313a207472616e736665722066726f6d20696e636f72726563742060008201527f6f776e6572000000000000000000000000000000000000000000000000000000602082015250565b6000612d9a602583611edf565b9150612da582612d3e565b604082019050919050565b60006020820190508181036000830152612dc981612d8d565b9050919050565b7f4552433732313a207472616e7366657220746f20746865207a65726f2061646460008201527f7265737300000000000000000000000000000000000000000000000000000000602082015250565b6000612e2c602483611edf565b9150612e3782612dd0565b604082019050919050565b60006020820190508181036000830152612e5b81612e1f565b9050919050565b7f4f776e61626c653a2063616c6c6572206973206e6f7420746865206f776e6572600082015250565b6000612e98602083611edf565b9150612ea382612e62565b602082019050919050565b60006020820190508181036000830152612ec781612e8b565b9050919050565b7f4552433732313a20617070726f766520746f2063616c6c657200000000000000600082015250565b6000612f04601983611edf565b9150612f0f82612ece565b602082019050919050565b60006020820190508181036000830152612f3381612ef7565b9050919050565b7f4552433732313a207472616e7366657220746f206e6f6e20455243373231526560008201527f63656976657220696d706c656d656e7465720000000000000000000000000000602082015250565b6000612f96603283611edf565b9150612fa182612f3a565b604082019050919050565b60006020820190508181036000830152612fc581612f89565b9050919050565b6000612fd782611f86565b9150612fe283611f86565b9250828203905081811115612ffa57612ff9612c01565b5b92915050565b600081519050919050565b600082825260208201905092915050565b600061302782613000565b613031818561300b565b9350613041818560208601611ef0565b61304a81611f1a565b840191505092915050565b600060808201905061306a600083018761201b565b613077602083018661201b565b6130846040830185612104565b8181036060830152613096818461301c565b905095945050505050565b6000815190506130b081611e45565b92915050565b6000602082840312156130cc576130cb611e0f565b5b60006130da848285016130a1565b91505092915050565b7f4552433732313a206d696e7420746f20746865207a65726f2061646472657373600082015250565b6000613119602083611edf565b9150613124826130e3565b602082019050919050565b600060208201905081810360008301526131488161310c565b9050919050565b7f4552433732313a20746f6b656e20616c7265616479206d696e74656400000000600082015250565b6000613185601c83611edf565b91506131908261314f565b602082019050919050565b600060208201905081810360008301526131b481613178565b905091905056fea2646970667358221220fa8f299e31c0f0ddaf5416b4af390f6d1690ce7c252b9f8bc00e406dc993652264736f6c63430008110033",
  "linkReferences": {},
  "deployedLinkReferences": {}
}